{
  "contractName": "Vaccine",
  "abi": [
    {
      "inputs": [],
      "payable": false,
      "stateMutability": "nonpayable",
      "type": "constructor"
    },
    {
      "anonymous": false,
      "inputs": [],
      "name": "vaccineEvent",
      "type": "event"
    },
    {
      "constant": true,
      "inputs": [
        {
          "internalType": "uint256",
          "name": "",
          "type": "uint256"
        }
      ],
      "name": "Appointments",
      "outputs": [
        {
          "internalType": "uint256",
          "name": "id",
          "type": "uint256"
        },
        {
          "internalType": "string",
          "name": "date",
          "type": "string"
        },
        {
          "internalType": "address",
          "name": "citizen",
          "type": "address"
        },
        {
          "internalType": "uint256",
          "name": "citizenId",
          "type": "uint256"
        },
        {
          "internalType": "address payable",
          "name": "hospital",
          "type": "address"
        },
        {
          "internalType": "uint256",
          "name": "hospitalId",
          "type": "uint256"
        },
        {
          "internalType": "string",
          "name": "vaccine",
          "type": "string"
        },
        {
          "internalType": "uint256",
          "name": "doseCount",
          "type": "uint256"
        },
        {
          "internalType": "bool",
          "name": "vaccinated",
          "type": "bool"
        }
      ],
      "payable": false,
      "stateMutability": "view",
      "type": "function"
    },
    {
      "constant": true,
      "inputs": [
        {
          "internalType": "uint256",
          "name": "",
          "type": "uint256"
        }
      ],
      "name": "Citizens",
      "outputs": [
        {
          "internalType": "uint256",
          "name": "id",
          "type": "uint256"
        },
        {
          "internalType": "string",
          "name": "name",
          "type": "string"
        },
        {
          "internalType": "address",
          "name": "publicAddress",
          "type": "address"
        },
        {
          "internalType": "string",
          "name": "vaccine",
          "type": "string"
        },
        {
          "internalType": "bool",
          "name": "vaccinated",
          "type": "bool"
        },
        {
          "internalType": "uint256",
          "name": "doses",
          "type": "uint256"
        },
        {
          "internalType": "bool",
          "name": "isCreated",
          "type": "bool"
        }
      ],
      "payable": false,
      "stateMutability": "view",
      "type": "function"
    },
    {
      "constant": true,
      "inputs": [
        {
          "internalType": "address",
          "name": "",
          "type": "address"
        }
      ],
      "name": "CitizensAddress",
      "outputs": [
        {
          "internalType": "uint256",
          "name": "id",
          "type": "uint256"
        },
        {
          "internalType": "string",
          "name": "name",
          "type": "string"
        },
        {
          "internalType": "address",
          "name": "publicAddress",
          "type": "address"
        },
        {
          "internalType": "string",
          "name": "vaccine",
          "type": "string"
        },
        {
          "internalType": "bool",
          "name": "vaccinated",
          "type": "bool"
        },
        {
          "internalType": "uint256",
          "name": "doses",
          "type": "uint256"
        },
        {
          "internalType": "bool",
          "name": "isCreated",
          "type": "bool"
        }
      ],
      "payable": false,
      "stateMutability": "view",
      "type": "function"
    },
    {
      "constant": true,
      "inputs": [
        {
          "internalType": "address",
          "name": "",
          "type": "address"
        }
      ],
      "name": "Hospitals",
      "outputs": [
        {
          "internalType": "uint256",
          "name": "id",
          "type": "uint256"
        },
        {
          "internalType": "string",
          "name": "name",
          "type": "string"
        },
        {
          "internalType": "address payable",
          "name": "owner",
          "type": "address"
        },
        {
          "internalType": "bool",
          "name": "isValidated",
          "type": "bool"
        },
        {
          "internalType": "string",
          "name": "vaccine",
          "type": "string"
        },
        {
          "internalType": "uint256",
          "name": "stock",
          "type": "uint256"
        },
        {
          "internalType": "uint256",
          "name": "nabhID",
          "type": "uint256"
        },
        {
          "internalType": "uint256",
          "name": "doseCost",
          "type": "uint256"
        }
      ],
      "payable": false,
      "stateMutability": "view",
      "type": "function"
    },
    {
      "constant": true,
      "inputs": [
        {
          "internalType": "uint256",
          "name": "",
          "type": "uint256"
        }
      ],
      "name": "HospitalsID",
      "outputs": [
        {
          "internalType": "uint256",
          "name": "id",
          "type": "uint256"
        },
        {
          "internalType": "string",
          "name": "name",
          "type": "string"
        },
        {
          "internalType": "address payable",
          "name": "owner",
          "type": "address"
        },
        {
          "internalType": "bool",
          "name": "isValidated",
          "type": "bool"
        },
        {
          "internalType": "string",
          "name": "vaccine",
          "type": "string"
        },
        {
          "internalType": "uint256",
          "name": "stock",
          "type": "uint256"
        },
        {
          "internalType": "uint256",
          "name": "nabhID",
          "type": "uint256"
        },
        {
          "internalType": "uint256",
          "name": "doseCost",
          "type": "uint256"
        }
      ],
      "payable": false,
      "stateMutability": "view",
      "type": "function"
    },
    {
      "constant": true,
      "inputs": [
        {
          "internalType": "address",
          "name": "",
          "type": "address"
        }
      ],
      "name": "Manufacturers",
      "outputs": [
        {
          "internalType": "uint256",
          "name": "id",
          "type": "uint256"
        },
        {
          "internalType": "string",
          "name": "name",
          "type": "string"
        },
        {
          "internalType": "address payable",
          "name": "owner",
          "type": "address"
        },
        {
          "internalType": "string",
          "name": "vaccine",
          "type": "string"
        },
        {
          "internalType": "uint256",
          "name": "capacity",
          "type": "uint256"
        },
        {
          "internalType": "uint256",
          "name": "gstNo",
          "type": "uint256"
        },
        {
          "internalType": "uint256",
          "name": "doseCost",
          "type": "uint256"
        },
        {
          "internalType": "bool",
          "name": "isCreated",
          "type": "bool"
        },
        {
          "internalType": "bool",
          "name": "isValidated",
          "type": "bool"
        }
      ],
      "payable": false,
      "stateMutability": "view",
      "type": "function"
    },
    {
      "constant": true,
      "inputs": [
        {
          "internalType": "uint256",
          "name": "",
          "type": "uint256"
        }
      ],
      "name": "ManufacturersID",
      "outputs": [
        {
          "internalType": "uint256",
          "name": "id",
          "type": "uint256"
        },
        {
          "internalType": "string",
          "name": "name",
          "type": "string"
        },
        {
          "internalType": "address payable",
          "name": "owner",
          "type": "address"
        },
        {
          "internalType": "string",
          "name": "vaccine",
          "type": "string"
        },
        {
          "internalType": "uint256",
          "name": "capacity",
          "type": "uint256"
        },
        {
          "internalType": "uint256",
          "name": "gstNo",
          "type": "uint256"
        },
        {
          "internalType": "uint256",
          "name": "doseCost",
          "type": "uint256"
        },
        {
          "internalType": "bool",
          "name": "isCreated",
          "type": "bool"
        },
        {
          "internalType": "bool",
          "name": "isValidated",
          "type": "bool"
        }
      ],
      "payable": false,
      "stateMutability": "view",
      "type": "function"
    },
    {
      "constant": true,
      "inputs": [],
      "name": "appointmentCount",
      "outputs": [
        {
          "internalType": "uint256",
          "name": "",
          "type": "uint256"
        }
      ],
      "payable": false,
      "stateMutability": "view",
      "type": "function"
    },
    {
      "constant": true,
      "inputs": [],
      "name": "citizenCount",
      "outputs": [
        {
          "internalType": "uint256",
          "name": "",
          "type": "uint256"
        }
      ],
      "payable": false,
      "stateMutability": "view",
      "type": "function"
    },
    {
      "constant": true,
      "inputs": [],
      "name": "hospitalCount",
      "outputs": [
        {
          "internalType": "uint256",
          "name": "",
          "type": "uint256"
        }
      ],
      "payable": false,
      "stateMutability": "view",
      "type": "function"
    },
    {
      "constant": true,
      "inputs": [],
      "name": "manufacturerCount",
      "outputs": [
        {
          "internalType": "uint256",
          "name": "",
          "type": "uint256"
        }
      ],
      "payable": false,
      "stateMutability": "view",
      "type": "function"
    },
    {
      "constant": true,
      "inputs": [],
      "name": "getGovernment",
      "outputs": [
        {
          "internalType": "address",
          "name": "",
          "type": "address"
        }
      ],
      "payable": false,
      "stateMutability": "view",
      "type": "function"
    },
    {
      "constant": true,
      "inputs": [
        {
          "internalType": "uint256",
          "name": "index",
          "type": "uint256"
        }
      ],
      "name": "getCitizenStatus",
      "outputs": [
        {
          "internalType": "string",
          "name": "",
          "type": "string"
        },
        {
          "internalType": "string",
          "name": "",
          "type": "string"
        },
        {
          "internalType": "bool",
          "name": "",
          "type": "bool"
        }
      ],
      "payable": false,
      "stateMutability": "view",
      "type": "function"
    },
    {
      "constant": false,
      "inputs": [
        {
          "internalType": "uint256",
          "name": "hospitalId",
          "type": "uint256"
        }
      ],
      "name": "validateHospital",
      "outputs": [],
      "payable": false,
      "stateMutability": "nonpayable",
      "type": "function"
    },
    {
      "constant": false,
      "inputs": [
        {
          "internalType": "uint256",
          "name": "Id",
          "type": "uint256"
        }
      ],
      "name": "validateManufacturer",
      "outputs": [],
      "payable": false,
      "stateMutability": "nonpayable",
      "type": "function"
    },
    {
      "constant": false,
      "inputs": [
        {
          "internalType": "string",
          "name": "name",
          "type": "string"
        }
      ],
      "name": "registerCitizen",
      "outputs": [],
      "payable": false,
      "stateMutability": "nonpayable",
      "type": "function"
    },
    {
      "constant": false,
      "inputs": [
        {
          "internalType": "string",
          "name": "date",
          "type": "string"
        },
        {
          "internalType": "uint256",
          "name": "hospitalID",
          "type": "uint256"
        }
      ],
      "name": "bookAppointment",
      "outputs": [],
      "payable": true,
      "stateMutability": "payable",
      "type": "function"
    },
    {
      "constant": true,
      "inputs": [
        {
          "internalType": "uint256",
          "name": "hospitalsID",
          "type": "uint256"
        }
      ],
      "name": "getHospitalAddress",
      "outputs": [
        {
          "internalType": "address payable",
          "name": "",
          "type": "address"
        }
      ],
      "payable": false,
      "stateMutability": "view",
      "type": "function"
    },
    {
      "constant": true,
      "inputs": [
        {
          "internalType": "uint256",
          "name": "id",
          "type": "uint256"
        }
      ],
      "name": "getManufactruerAddress",
      "outputs": [
        {
          "internalType": "address payable",
          "name": "",
          "type": "address"
        }
      ],
      "payable": false,
      "stateMutability": "view",
      "type": "function"
    },
    {
      "constant": false,
      "inputs": [
        {
          "internalType": "string",
          "name": "name",
          "type": "string"
        },
        {
          "internalType": "string",
          "name": "vaccine",
          "type": "string"
        },
        {
          "internalType": "uint256",
          "name": "nabhID",
          "type": "uint256"
        },
        {
          "internalType": "uint256",
          "name": "doseCost",
          "type": "uint256"
        }
      ],
      "name": "registerHospital",
      "outputs": [],
      "payable": false,
      "stateMutability": "nonpayable",
      "type": "function"
    },
    {
      "constant": false,
      "inputs": [
        {
          "internalType": "uint256",
          "name": "appointmentId",
          "type": "uint256"
        }
      ],
      "name": "vaccinateCitizen",
      "outputs": [],
      "payable": false,
      "stateMutability": "nonpayable",
      "type": "function"
    },
    {
      "constant": false,
      "inputs": [
        {
          "internalType": "uint256",
          "name": "manufacturersID",
          "type": "uint256"
        },
        {
          "internalType": "uint256",
          "name": "quantity",
          "type": "uint256"
        }
      ],
      "name": "placeVaccineOrder",
      "outputs": [],
      "payable": true,
      "stateMutability": "payable",
      "type": "function"
    },
    {
      "constant": false,
      "inputs": [
        {
          "internalType": "string",
          "name": "name",
          "type": "string"
        },
        {
          "internalType": "string",
          "name": "vaccine",
          "type": "string"
        },
        {
          "internalType": "uint256",
          "name": "gstNo",
          "type": "uint256"
        },
        {
          "internalType": "uint256",
          "name": "doseCost",
          "type": "uint256"
        }
      ],
      "name": "registerManufacturer",
      "outputs": [],
      "payable": false,
      "stateMutability": "nonpayable",
      "type": "function"
    },
    {
      "constant": false,
      "inputs": [
        {
          "internalType": "uint256",
          "name": "supply",
          "type": "uint256"
        }
      ],
      "name": "addSupply",
      "outputs": [],
      "payable": false,
      "stateMutability": "nonpayable",
      "type": "function"
    }
  ],
  "bytecode": "0x608060405234801561001057600080fd5b50336000806101000a81548173ffffffffffffffffffffffffffffffffffffffff021916908373ffffffffffffffffffffffffffffffffffffffff160217905550613e5c806100606000396000f3fe60806040526004361061014b5760003560e01c80637fad2c23116100b6578063e13f65751161006f578063e13f657514610f73578063e7085d7d14611120578063e9a179ae146112ad578063ee0ff708146112e5578063eebc3fb214611320578063f71350f61461134b5761014b565b80637fad2c2314610b3657806381b4690d14610c615780639f9d83c814610cb8578063a549a4ed14610cf3578063ab1558d214610e83578063be0c6f1c14610f485761014b565b8063448a6e9b11610108578063448a6e9b146106f05780635b4c777d1461086357806367a5f1b41461088e57806367dafe19146109095780636939a3f8146109445780637e2e038b146109bf5761014b565b80630297f0b31461015057806309b7b88a146102185780630dc3b5da1461038b578063350dadb71461051057806340753a761461053b5780634155849d14610576575b600080fd5b34801561015c57600080fd5b506102166004803603602081101561017357600080fd5b810190808035906020019064010000000081111561019057600080fd5b8201836020820111156101a257600080fd5b803590602001918460018302840111640100000000831117156101c457600080fd5b91908080601f016020809104026020016040519081016040528093929190818152602001838380828437600081840152601f19601f8201169050808301925050505050505091929192905050506114e6565b005b34801561022457600080fd5b506103896004803603608081101561023b57600080fd5b810190808035906020019064010000000081111561025857600080fd5b82018360208201111561026a57600080fd5b8035906020019184600183028401116401000000008311171561028c57600080fd5b91908080601f016020809104026020016040519081016040528093929190818152602001838380828437600081840152601f19601f820116905080830192505050505050509192919290803590602001906401000000008111156102ef57600080fd5b82018360208201111561030157600080fd5b8035906020019184600183028401116401000000008311171561032357600080fd5b91908080601f016020809104026020016040519081016040528093929190818152602001838380828437600081840152601f19601f8201169050808301925050505050505091929192908035906020019092919080359060200190929190505050611793565b005b34801561039757600080fd5b506103c4600480360360208110156103ae57600080fd5b81019080803590602001909291905050506119fa565b604051808a8152602001806020018973ffffffffffffffffffffffffffffffffffffffff1673ffffffffffffffffffffffffffffffffffffffff16815260200180602001888152602001878152602001868152602001851515151581526020018415151515815260200183810383528b818151815260200191508051906020019080838360005b8381101561046657808201518184015260208101905061044b565b50505050905090810190601f1680156104935780820380516001836020036101000a031916815260200191505b50838103825289818151815260200191508051906020019080838360005b838110156104cc5780820151818401526020810190506104b1565b50505050905090810190601f1680156104f95780820380516001836020036101000a031916815260200191505b509b50505050505050505050505060405180910390f35b34801561051c57600080fd5b50610525611bb2565b6040518082815260200191505060405180910390f35b34801561054757600080fd5b506105746004803603602081101561055e57600080fd5b8101908080359060200190929190505050611bb8565b005b34801561058257600080fd5b506105af6004803603602081101561059957600080fd5b8101908080359060200190929190505050611c24565b60405180898152602001806020018873ffffffffffffffffffffffffffffffffffffffff1673ffffffffffffffffffffffffffffffffffffffff168152602001871515151581526020018060200186815260200185815260200184815260200183810383528a818151815260200191508051906020019080838360005b8381101561064757808201518184015260208101905061062c565b50505050905090810190601f1680156106745780820380516001836020036101000a031916815260200191505b50838103825287818151815260200191508051906020019080838360005b838110156106ad578082015181840152602081019050610692565b50505050905090810190601f1680156106da5780820380516001836020036101000a031916815260200191505b509a505050505050505050505060405180910390f35b3480156106fc57600080fd5b506108616004803603608081101561071357600080fd5b810190808035906020019064010000000081111561073057600080fd5b82018360208201111561074257600080fd5b8035906020019184600183028401116401000000008311171561076457600080fd5b91908080601f016020809104026020016040519081016040528093929190818152602001838380828437600081840152601f19601f820116905080830192505050505050509192919290803590602001906401000000008111156107c757600080fd5b8201836020820111156107d957600080fd5b803590602001918460018302840111640100000000831117156107fb57600080fd5b91908080601f016020809104026020016040519081016040528093929190818152602001838380828437600081840152601f19601f8201169050808301925050505050505091929192908035906020019092919080359060200190929190505050611dc9565b005b34801561086f57600080fd5b5061087861207b565b6040518082815260200191505060405180910390f35b34801561089a57600080fd5b506108c7600480360360208110156108b157600080fd5b8101908080359060200190929190505050612081565b604051808273ffffffffffffffffffffffffffffffffffffffff1673ffffffffffffffffffffffffffffffffffffffff16815260200191505060405180910390f35b34801561091557600080fd5b506109426004803603602081101561092c57600080fd5b8101908080359060200190929190505050612296565b005b34801561095057600080fd5b5061097d6004803603602081101561096757600080fd5b8101908080359060200190929190505050612327565b604051808273ffffffffffffffffffffffffffffffffffffffff1673ffffffffffffffffffffffffffffffffffffffff16815260200191505060405180910390f35b3480156109cb57600080fd5b506109f8600480360360208110156109e257600080fd5b8101908080359060200190929190505050612557565b60405180888152602001806020018773ffffffffffffffffffffffffffffffffffffffff1673ffffffffffffffffffffffffffffffffffffffff168152602001806020018615151515815260200185815260200184151515158152602001838103835289818151815260200191508051906020019080838360005b83811015610a8e578082015181840152602081019050610a73565b50505050905090810190601f168015610abb5780820380516001836020036101000a031916815260200191505b50838103825287818151815260200191508051906020019080838360005b83811015610af4578082015181840152602081019050610ad9565b50505050905090810190601f168015610b215780820380516001836020036101000a031916815260200191505b50995050505050505050505060405180910390f35b348015610b4257600080fd5b50610b6f60048036036020811015610b5957600080fd5b8101908080359060200190929190505050612703565b60405180806020018060200184151515158152602001838103835286818151815260200191508051906020019080838360005b83811015610bbd578082015181840152602081019050610ba2565b50505050905090810190601f168015610bea5780820380516001836020036101000a031916815260200191505b50838103825285818151815260200191508051906020019080838360005b83811015610c23578082015181840152602081019050610c08565b50505050905090810190601f168015610c505780820380516001836020036101000a031916815260200191505b509550505050505060405180910390f35b348015610c6d57600080fd5b50610c766128f6565b604051808273ffffffffffffffffffffffffffffffffffffffff1673ffffffffffffffffffffffffffffffffffffffff16815260200191505060405180910390f35b348015610cc457600080fd5b50610cf160048036036020811015610cdb57600080fd5b810190808035906020019092919050505061291f565b005b348015610cff57600080fd5b50610d4260048036036020811015610d1657600080fd5b81019080803573ffffffffffffffffffffffffffffffffffffffff1690602001909291905050506129b0565b60405180898152602001806020018873ffffffffffffffffffffffffffffffffffffffff1673ffffffffffffffffffffffffffffffffffffffff168152602001871515151581526020018060200186815260200185815260200184815260200183810383528a818151815260200191508051906020019080838360005b83811015610dda578082015181840152602081019050610dbf565b50505050905090810190601f168015610e075780820380516001836020036101000a031916815260200191505b50838103825287818151815260200191508051906020019080838360005b83811015610e40578082015181840152602081019050610e25565b50505050905090810190601f168015610e6d5780820380516001836020036101000a031916815260200191505b509a505050505050505050505060405180910390f35b610f4660048036036040811015610e9957600080fd5b8101908080359060200190640100000000811115610eb657600080fd5b820183602082011115610ec857600080fd5b80359060200191846001830284011164010000000083111715610eea57600080fd5b91908080601f016020809104026020016040519081016040528093929190818152602001838380828437600081840152601f19601f82011690508083019250505050505050919291929080359060200190929190505050612b55565b005b348015610f5457600080fd5b50610f5d613039565b6040518082815260200191505060405180910390f35b348015610f7f57600080fd5b50610fac60048036036020811015610f9657600080fd5b810190808035906020019092919050505061303f565b604051808a8152602001806020018973ffffffffffffffffffffffffffffffffffffffff1673ffffffffffffffffffffffffffffffffffffffff1681526020018881526020018773ffffffffffffffffffffffffffffffffffffffff1673ffffffffffffffffffffffffffffffffffffffff168152602001868152602001806020018581526020018415151515815260200183810383528b818151815260200191508051906020019080838360005b8381101561107657808201518184015260208101905061105b565b50505050905090810190601f1680156110a35780820380516001836020036101000a031916815260200191505b50838103825286818151815260200191508051906020019080838360005b838110156110dc5780820151818401526020810190506110c1565b50505050905090810190601f1680156111095780820380516001836020036101000a031916815260200191505b509b50505050505050505050505060405180910390f35b34801561112c57600080fd5b5061116f6004803603602081101561114357600080fd5b81019080803573ffffffffffffffffffffffffffffffffffffffff16906020019092919050505061320a565b60405180888152602001806020018773ffffffffffffffffffffffffffffffffffffffff1673ffffffffffffffffffffffffffffffffffffffff168152602001806020018615151515815260200185815260200184151515158152602001838103835289818151815260200191508051906020019080838360005b838110156112055780820151818401526020810190506111ea565b50505050905090810190601f1680156112325780820380516001836020036101000a031916815260200191505b50838103825287818151815260200191508051906020019080838360005b8381101561126b578082015181840152602081019050611250565b50505050905090810190601f1680156112985780820380516001836020036101000a031916815260200191505b50995050505050505050505060405180910390f35b6112e3600480360360408110156112c357600080fd5b8101908080359060200190929190803590602001909291905050506133b6565b005b3480156112f157600080fd5b5061131e6004803603602081101561130857600080fd5b81019080803590602001909291905050506135c0565b005b34801561132c57600080fd5b50611335613984565b6040518082815260200191505060405180910390f35b34801561135757600080fd5b5061139a6004803603602081101561136e57600080fd5b81019080803573ffffffffffffffffffffffffffffffffffffffff16906020019092919050505061398a565b604051808a8152602001806020018973ffffffffffffffffffffffffffffffffffffffff1673ffffffffffffffffffffffffffffffffffffffff16815260200180602001888152602001878152602001868152602001851515151581526020018415151515815260200183810383528b818151815260200191508051906020019080838360005b8381101561143c578082015181840152602081019050611421565b50505050905090810190601f1680156114695780820380516001836020036101000a031916815260200191505b50838103825289818151815260200191508051906020019080838360005b838110156114a2578082015181840152602081019050611487565b50505050905090810190601f1680156114cf5780820380516001836020036101000a031916815260200191505b509b50505050505050505050505060405180910390f35b6114ee613b42565b6040518060e0016040528060025481526020018381526020013373ffffffffffffffffffffffffffffffffffffffff1681526020016040518060400160405280600e81526020017f4e6f742056616363696e6174656400000000000000000000000000000000000081525081526020016000151581526020016000815260200160011515815250905080600a600060025481526020019081526020016000206000820151816000015560208201518160010190805190602001906115b3929190613b99565b5060408201518160020160006101000a81548173ffffffffffffffffffffffffffffffffffffffff021916908373ffffffffffffffffffffffffffffffffffffffff1602179055506060820151816003019080519060200190611617929190613b99565b5060808201518160040160006101000a81548160ff02191690831515021790555060a0820151816005015560c08201518160060160006101000a81548160ff02191690831515021790555090505080600960003373ffffffffffffffffffffffffffffffffffffffff1673ffffffffffffffffffffffffffffffffffffffff1681526020019081526020016000206000820151816000015560208201518160010190805190602001906116cb929190613b99565b5060408201518160020160006101000a81548173ffffffffffffffffffffffffffffffffffffffff021916908373ffffffffffffffffffffffffffffffffffffffff160217905550606082015181600301908051906020019061172f929190613b99565b5060808201518160040160006101000a81548160ff02191690831515021790555060a0820151816005015560c08201518160060160006101000a81548160ff0219169083151502179055509050506002600081548092919060010191905055505050565b61179b613c19565b60405180610100016040528060035481526020018681526020013373ffffffffffffffffffffffffffffffffffffffff1681526020016000151581526020018581526020016000815260200184815260200183815250905080600760003373ffffffffffffffffffffffffffffffffffffffff1673ffffffffffffffffffffffffffffffffffffffff168152602001908152602001600020600082015181600001556020820151816001019080519060200190611859929190613b99565b5060408201518160020160006101000a81548173ffffffffffffffffffffffffffffffffffffffff021916908373ffffffffffffffffffffffffffffffffffffffff16021790555060608201518160020160146101000a81548160ff02191690831515021790555060808201518160030190805190602001906118dd929190613b99565b5060a0820151816004015560c0820151816005015560e082015181600601559050508060086000600354815260200190815260200160002060008201518160000155602082015181600101908051906020019061193b929190613b99565b5060408201518160020160006101000a81548173ffffffffffffffffffffffffffffffffffffffff021916908373ffffffffffffffffffffffffffffffffffffffff16021790555060608201518160020160146101000a81548160ff02191690831515021790555060808201518160030190805190602001906119bf929190613b99565b5060a0820151816004015560c0820151816005015560e082015181600601559050506003600081548092919060010191905055505050505050565b6006602052806000526040600020600091509050806000015490806001018054600181600116156101000203166002900480601f016020809104026020016040519081016040528092919081815260200182805460018160011615610100020316600290048015611aac5780601f10611a8157610100808354040283529160200191611aac565b820191906000526020600020905b815481529060010190602001808311611a8f57829003601f168201915b5050505050908060020160009054906101000a900473ffffffffffffffffffffffffffffffffffffffff1690806003018054600181600116156101000203166002900480601f016020809104026020016040519081016040528092919081815260200182805460018160011615610100020316600290048015611b705780601f10611b4557610100808354040283529160200191611b70565b820191906000526020600020905b815481529060010190602001808311611b5357829003601f168201915b5050505050908060040154908060050154908060060154908060070160009054906101000a900460ff16908060070160019054906101000a900460ff16905089565b60035481565b600060066000600560003373ffffffffffffffffffffffffffffffffffffffff1673ffffffffffffffffffffffffffffffffffffffff16815260200190815260200160002060000154815260200190815260200160002090508181600401540181600401819055505050565b6008602052806000526040600020600091509050806000015490806001018054600181600116156101000203166002900480601f016020809104026020016040519081016040528092919081815260200182805460018160011615610100020316600290048015611cd65780601f10611cab57610100808354040283529160200191611cd6565b820191906000526020600020905b815481529060010190602001808311611cb957829003601f168201915b5050505050908060020160009054906101000a900473ffffffffffffffffffffffffffffffffffffffff16908060020160149054906101000a900460ff1690806003018054600181600116156101000203166002900480601f016020809104026020016040519081016040528092919081815260200182805460018160011615610100020316600290048015611dad5780601f10611d8257610100808354040283529160200191611dad565b820191906000526020600020905b815481529060010190602001808311611d9057829003601f168201915b5050505050908060040154908060050154908060060154905088565b611dd1613c76565b60405180610120016040528060015481526020018681526020013373ffffffffffffffffffffffffffffffffffffffff1681526020018581526020016000815260200184815260200183815260200160011515815260200160001515815250905080600560003373ffffffffffffffffffffffffffffffffffffffff1673ffffffffffffffffffffffffffffffffffffffff168152602001908152602001600020600082015181600001556020820151816001019080519060200190611e98929190613b99565b5060408201518160020160006101000a81548173ffffffffffffffffffffffffffffffffffffffff021916908373ffffffffffffffffffffffffffffffffffffffff1602179055506060820151816003019080519060200190611efc929190613b99565b506080820151816004015560a0820151816005015560c0820151816006015560e08201518160070160006101000a81548160ff0219169083151502179055506101008201518160070160016101000a81548160ff02191690831515021790555090505080600660006001548152602001908152602001600020600082015181600001556020820151816001019080519060200190611f9b929190613b99565b5060408201518160020160006101000a81548173ffffffffffffffffffffffffffffffffffffffff021916908373ffffffffffffffffffffffffffffffffffffffff1602179055506060820151816003019080519060200190611fff929190613b99565b506080820151816004015560a0820151816005015560c0820151816006015560e08201518160070160006101000a81548160ff0219169083151502179055506101008201518160070160016101000a81548160ff0219169083151502179055509050506001600081548092919060010191905055505050505050565b60025481565b600061208b613c19565b600860008481526020019081526020016000206040518061010001604052908160008201548152602001600182018054600181600116156101000203166002900480601f01602080910402602001604051908101604052809291908181526020018280546001816001161561010002031660029004801561214d5780601f106121225761010080835404028352916020019161214d565b820191906000526020600020905b81548152906001019060200180831161213057829003601f168201915b505050505081526020016002820160009054906101000a900473ffffffffffffffffffffffffffffffffffffffff1673ffffffffffffffffffffffffffffffffffffffff1673ffffffffffffffffffffffffffffffffffffffff1681526020016002820160149054906101000a900460ff16151515158152602001600382018054600181600116156101000203166002900480601f0160208091040260200160405190810160405280929190818152602001828054600181600116156101000203166002900480156122605780601f1061223557610100808354040283529160200191612260565b820191906000526020600020905b81548152906001019060200180831161224357829003601f168201915b50505050508152602001600482015481526020016005820154815260200160068201548152505090508060400151915050919050565b6000809054906101000a900473ffffffffffffffffffffffffffffffffffffffff1673ffffffffffffffffffffffffffffffffffffffff163373ffffffffffffffffffffffffffffffffffffffff16146122ef57600080fd5b600060086000838152602001908152602001600020905060018160020160146101000a81548160ff0219169083151502179055505050565b6000612331613c76565b600660008481526020019081526020016000206040518061012001604052908160008201548152602001600182018054600181600116156101000203166002900480601f0160208091040260200160405190810160405280929190818152602001828054600181600116156101000203166002900480156123f35780601f106123c8576101008083540402835291602001916123f3565b820191906000526020600020905b8154815290600101906020018083116123d657829003601f168201915b505050505081526020016002820160009054906101000a900473ffffffffffffffffffffffffffffffffffffffff1673ffffffffffffffffffffffffffffffffffffffff1673ffffffffffffffffffffffffffffffffffffffff168152602001600382018054600181600116156101000203166002900480601f0160208091040260200160405190810160405280929190818152602001828054600181600116156101000203166002900480156124eb5780601f106124c0576101008083540402835291602001916124eb565b820191906000526020600020905b8154815290600101906020018083116124ce57829003601f168201915b505050505081526020016004820154815260200160058201548152602001600682015481526020016007820160009054906101000a900460ff161515151581526020016007820160019054906101000a900460ff16151515158152505090508060400151915050919050565b600a602052806000526040600020600091509050806000015490806001018054600181600116156101000203166002900480601f0160208091040260200160405190810160405280929190818152602001828054600181600116156101000203166002900480156126095780601f106125de57610100808354040283529160200191612609565b820191906000526020600020905b8154815290600101906020018083116125ec57829003601f168201915b5050505050908060020160009054906101000a900473ffffffffffffffffffffffffffffffffffffffff1690806003018054600181600116156101000203166002900480601f0160208091040260200160405190810160405280929190818152602001828054600181600116156101000203166002900480156126cd5780601f106126a2576101008083540402835291602001916126cd565b820191906000526020600020905b8154815290600101906020018083116126b057829003601f168201915b5050505050908060040160009054906101000a900460ff16908060050154908060060160009054906101000a900460ff16905087565b60608060008060009054906101000a900473ffffffffffffffffffffffffffffffffffffffff1673ffffffffffffffffffffffffffffffffffffffff163373ffffffffffffffffffffffffffffffffffffffff161461276157600080fd5b600a6000858152602001908152602001600020600101600a6000868152602001908152602001600020600301600a600087815260200190815260200160002060040160009054906101000a900460ff16828054600181600116156101000203166002900480601f0160208091040260200160405190810160405280929190818152602001828054600181600116156101000203166002900480156128465780601f1061281b57610100808354040283529160200191612846565b820191906000526020600020905b81548152906001019060200180831161282957829003601f168201915b50505050509250818054600181600116156101000203166002900480601f0160208091040260200160405190810160405280929190818152602001828054600181600116156101000203166002900480156128e25780601f106128b7576101008083540402835291602001916128e2565b820191906000526020600020905b8154815290600101906020018083116128c557829003601f168201915b505050505091509250925092509193909250565b60008060009054906101000a900473ffffffffffffffffffffffffffffffffffffffff16905090565b6000809054906101000a900473ffffffffffffffffffffffffffffffffffffffff1673ffffffffffffffffffffffffffffffffffffffff163373ffffffffffffffffffffffffffffffffffffffff161461297857600080fd5b600060066000838152602001908152602001600020905060018160070160016101000a81548160ff0219169083151502179055505050565b6007602052806000526040600020600091509050806000015490806001018054600181600116156101000203166002900480601f016020809104026020016040519081016040528092919081815260200182805460018160011615610100020316600290048015612a625780601f10612a3757610100808354040283529160200191612a62565b820191906000526020600020905b815481529060010190602001808311612a4557829003601f168201915b5050505050908060020160009054906101000a900473ffffffffffffffffffffffffffffffffffffffff16908060020160149054906101000a900460ff1690806003018054600181600116156101000203166002900480601f016020809104026020016040519081016040528092919081815260200182805460018160011615610100020316600290048015612b395780601f10612b0e57610100808354040283529160200191612b39565b820191906000526020600020905b815481529060010190602001808311612b1c57829003601f168201915b5050505050908060040154908060050154908060060154905088565b6000612b6082612081565b905060001515600960003373ffffffffffffffffffffffffffffffffffffffff1673ffffffffffffffffffffffffffffffffffffffff16815260200190815260200160002060040160009054906101000a900460ff16151514612c2b576040517f08c379a000000000000000000000000000000000000000000000000000000000815260040180806020018281038252601b8152602001807f596f752061726520616c72656164792076616363696e6174656421000000000081525060200191505060405180910390fd5b600160086000600760008573ffffffffffffffffffffffffffffffffffffffff1673ffffffffffffffffffffffffffffffffffffffff168152602001908152602001600020600001548152602001908152602001600020600401541015612cfa576040517f08c379a00000000000000000000000000000000000000000000000000000000081526004018080602001828103825260108152602001807f4e6f7420656e6f7567682073746f636b0000000000000000000000000000000081525060200191505060405180910390fd5b6060600860008481526020019081526020016000206003018054600181600116156101000203166002900480601f016020809104026020016040519081016040528092919081815260200182805460018160011615610100020316600290048015612da65780601f10612d7b57610100808354040283529160200191612da6565b820191906000526020600020905b815481529060010190602001808311612d8957829003601f168201915b50505050509050612db5613cdc565b60405180610120016040528060045481526020018681526020013373ffffffffffffffffffffffffffffffffffffffff168152602001600960003373ffffffffffffffffffffffffffffffffffffffff1673ffffffffffffffffffffffffffffffffffffffff1681526020019081526020016000206000015481526020018473ffffffffffffffffffffffffffffffffffffffff1681526020018581526020018381526020016001600960003373ffffffffffffffffffffffffffffffffffffffff1673ffffffffffffffffffffffffffffffffffffffff1681526020019081526020016000206005015401815260200160001515815250905080600b60006004548152602001908152602001600020600082015181600001556020820151816001019080519060200190612eeb929190613b99565b5060408201518160020160006101000a81548173ffffffffffffffffffffffffffffffffffffffff021916908373ffffffffffffffffffffffffffffffffffffffff1602179055506060820151816003015560808201518160040160006101000a81548173ffffffffffffffffffffffffffffffffffffffff021916908373ffffffffffffffffffffffffffffffffffffffff16021790555060a0820151816005015560c0820151816006019080519060200190612faa929190613b99565b5060e082015181600701556101008201518160080160006101000a81548160ff0219169083151502179055509050506004600081548092919060010191905055508273ffffffffffffffffffffffffffffffffffffffff166108fc349081150290604051600060405180830381858888f19350505050158015613031573d6000803e3d6000fd5b505050505050565b60015481565b600b602052806000526040600020600091509050806000015490806001018054600181600116156101000203166002900480601f0160208091040260200160405190810160405280929190818152602001828054600181600116156101000203166002900480156130f15780601f106130c6576101008083540402835291602001916130f1565b820191906000526020600020905b8154815290600101906020018083116130d457829003601f168201915b5050505050908060020160009054906101000a900473ffffffffffffffffffffffffffffffffffffffff16908060030154908060040160009054906101000a900473ffffffffffffffffffffffffffffffffffffffff1690806005015490806006018054600181600116156101000203166002900480601f0160208091040260200160405190810160405280929190818152602001828054600181600116156101000203166002900480156131e75780601f106131bc576101008083540402835291602001916131e7565b820191906000526020600020905b8154815290600101906020018083116131ca57829003601f168201915b5050505050908060070154908060080160009054906101000a900460ff16905089565b6009602052806000526040600020600091509050806000015490806001018054600181600116156101000203166002900480601f0160208091040260200160405190810160405280929190818152602001828054600181600116156101000203166002900480156132bc5780601f10613291576101008083540402835291602001916132bc565b820191906000526020600020905b81548152906001019060200180831161329f57829003601f168201915b5050505050908060020160009054906101000a900473ffffffffffffffffffffffffffffffffffffffff1690806003018054600181600116156101000203166002900480601f0160208091040260200160405190810160405280929190818152602001828054600181600116156101000203166002900480156133805780601f1061335557610100808354040283529160200191613380565b820191906000526020600020905b81548152906001019060200180831161336357829003601f168201915b5050505050908060040160009054906101000a900460ff16908060050154908060060160009054906101000a900460ff16905087565b600060066000848152602001908152602001600020905060008160020160009054906101000a900473ffffffffffffffffffffffffffffffffffffffff169050600060086000600760003373ffffffffffffffffffffffffffffffffffffffff1673ffffffffffffffffffffffffffffffffffffffff168152602001908152602001600020600001548152602001908152602001600020905082600401548411156134c9576040517f08c379a000000000000000000000000000000000000000000000000000000000815260040180806020018281038252601d8152602001807f4e6f7420656e6f756768207175616e7469747920617661696c61626c6500000081525060200191505060405180910390fd5b600015158360070160019054906101000a900460ff16151514613554576040517f08c379a000000000000000000000000000000000000000000000000000000000815260040180806020018281038252601a8152602001807f4d616e756661637475726572204e6f742056616c69646174656400000000000081525060200191505060405180910390fd5b8383600401540383600401819055508381600401540181600401819055508173ffffffffffffffffffffffffffffffffffffffff166108fc349081150290604051600060405180830381858888f193505050501580156135b8573d6000803e3d6000fd5b505050505050565b6000600760003373ffffffffffffffffffffffffffffffffffffffff1673ffffffffffffffffffffffffffffffffffffffff16815260200190815260200160002090508060020160009054906101000a900473ffffffffffffffffffffffffffffffffffffffff1673ffffffffffffffffffffffffffffffffffffffff163373ffffffffffffffffffffffffffffffffffffffff16146136c8576040517f08c379a00000000000000000000000000000000000000000000000000000000081526004018080602001828103825260168152602001807f596f7520617265206e6f7420617574686f72697365640000000000000000000081525060200191505060405180910390fd5b60011515600860008360000154815260200190815260200160002060020160149054906101000a900460ff1615151461374c576040517f08c379a0000000000000000000000000000000000000000000000000000000008152600401808060200182810382526025815260200180613e036025913960400191505060405180910390fd5b6000600b600084815260200190815260200160002090506000816003015490506000600a60008381526020019081526020016000209050836003018160030190805460018160011615610100020316600290046137aa929190613d56565b50600181600501540181600501819055508060050154600960008360020160009054906101000a900473ffffffffffffffffffffffffffffffffffffffff1673ffffffffffffffffffffffffffffffffffffffff1673ffffffffffffffffffffffffffffffffffffffff168152602001908152602001600020600501819055506002816005015414156138d4576001600960008360020160009054906101000a900473ffffffffffffffffffffffffffffffffffffffff1673ffffffffffffffffffffffffffffffffffffffff1673ffffffffffffffffffffffffffffffffffffffff16815260200190815260200160002060040160006101000a81548160ff02191690831515021790555060018160040160006101000a81548160ff0219169083151502179055505b60018460040154038460040181905550600060086000600760003373ffffffffffffffffffffffffffffffffffffffff1673ffffffffffffffffffffffffffffffffffffffff1681526020019081526020016000206000015481526020019081526020016000209050600181600401540381600401819055506001600b600088815260200190815260200160002060080160006101000a81548160ff021916908315150217905550505050505050565b60045481565b6005602052806000526040600020600091509050806000015490806001018054600181600116156101000203166002900480601f016020809104026020016040519081016040528092919081815260200182805460018160011615610100020316600290048015613a3c5780601f10613a1157610100808354040283529160200191613a3c565b820191906000526020600020905b815481529060010190602001808311613a1f57829003601f168201915b5050505050908060020160009054906101000a900473ffffffffffffffffffffffffffffffffffffffff1690806003018054600181600116156101000203166002900480601f016020809104026020016040519081016040528092919081815260200182805460018160011615610100020316600290048015613b005780601f10613ad557610100808354040283529160200191613b00565b820191906000526020600020905b815481529060010190602001808311613ae357829003601f168201915b5050505050908060040154908060050154908060060154908060070160009054906101000a900460ff16908060070160019054906101000a900460ff16905089565b6040518060e001604052806000815260200160608152602001600073ffffffffffffffffffffffffffffffffffffffff16815260200160608152602001600015158152602001600081526020016000151581525090565b828054600181600116156101000203166002900490600052602060002090601f016020900481019282601f10613bda57805160ff1916838001178555613c08565b82800160010185558215613c08579182015b82811115613c07578251825591602001919060010190613bec565b5b509050613c159190613ddd565b5090565b6040518061010001604052806000815260200160608152602001600073ffffffffffffffffffffffffffffffffffffffff168152602001600015158152602001606081526020016000815260200160008152602001600081525090565b6040518061012001604052806000815260200160608152602001600073ffffffffffffffffffffffffffffffffffffffff168152602001606081526020016000815260200160008152602001600081526020016000151581526020016000151581525090565b6040518061012001604052806000815260200160608152602001600073ffffffffffffffffffffffffffffffffffffffff16815260200160008152602001600073ffffffffffffffffffffffffffffffffffffffff1681526020016000815260200160608152602001600081526020016000151581525090565b828054600181600116156101000203166002900490600052602060002090601f016020900481019282601f10613d8f5780548555613dcc565b82800160010185558215613dcc57600052602060002091601f016020900482015b82811115613dcb578254825591600101919060010190613db0565b5b509050613dd99190613ddd565b5090565b613dff91905b80821115613dfb576000816000905550600101613de3565b5090565b9056fe486f73706974616c206e6f7420617574686f726973656420627920676f7665726e6d656e74a265627a7a7231582037e716e605dd415ca7d14c7c3c91b53432a609290b80d235871ee3cb73abd01164736f6c63430005100032",
  "source": "// SPDX-License-Identifier: MIT\r\n\r\npragma solidity ^0.5.16;\r\n\r\ncontract Vaccine {\r\n\r\n    // ---GOVERNMENT CONTROL---\r\n    // Government\r\n    address government;\r\n    \r\n    // Set the contract creator as government\r\n    constructor() public {\r\n        government = msg.sender;\r\n    }\r\n    \r\n    // Returrn the governments public addrerss\r\n    function getGovernment() public view returns (address) {\r\n        return government;\r\n    }\r\n    \r\n    // Get status of citizen - only government can access this data\r\n    function getCitizenStatus(uint index) public view onlyGovernment returns (string memory, string memory, bool) {\r\n        return (Citizens[index].name, Citizens[index].vaccine, Citizens[index].vaccinated);\r\n    }\r\n    \r\n    // Grant hospital permission to vaccinate\r\n    function validateHospital(uint hospitalId) public onlyGovernment {\r\n        Hospital storage hospital = HospitalsID[hospitalId]; // Fetch associated hospital\r\n        hospital.isValidated = true; // Validate hospital\r\n    }\r\n\r\n    function validateManufacturer(uint Id) public onlyGovernment {\r\n        Manufacturer storage manufacturer = ManufacturersID[Id];\r\n        manufacturer.isValidated = true; // Validate hospital\r\n    }\r\n    \r\n    \r\n    // Custom modifier to enable only the government to access certain data\r\n    modifier onlyGovernment() {\r\n        require(msg.sender == government);\r\n        _;\r\n    }\r\n    // ---END GOVERNMENT CONTROL---\r\n    \r\n    event vaccineEvent();\r\n    \r\n    \r\n    \r\n    // ---VARIABLES---\r\n    // Variables to keep track of instance counts\r\n    uint public manufacturerCount;\r\n    uint public citizenCount;\r\n    uint public hospitalCount;\r\n    uint public appointmentCount;\r\n    \r\n    // Mappings to keep track of structs\r\n    mapping(address => Manufacturer) public Manufacturers; // Mapping that holds records of all manufacturers\r\n    mapping(uint => Manufacturer) public ManufacturersID; // Mapping that holds records of all manufacturers by id\r\n    mapping(address => Hospital) public Hospitals; // Mapping that holds records of all hospitals\r\n    mapping(uint => Hospital) public HospitalsID; // Mapping that holds records of all hospitals by id\r\n    mapping(address => Citizen) public CitizensAddress; // Mapping that holds records of all citizens by address\r\n    mapping(uint => Citizen) public Citizens; // Mapping that holds records of all citizens \r\n    mapping(uint => Appointment) public Appointments; // Mapping that holds records of all appointments \r\n\r\n    // Structs for Hospital, Manufacturers, Citizens and Appointments\r\n    struct Hospital {\r\n        uint id;\r\n        string name;\r\n        address payable owner;\r\n        bool isValidated;\r\n        string vaccine;\r\n        uint stock;\r\n        uint nabhID;\r\n        uint doseCost;\r\n    }\r\n    \r\n    struct Manufacturer {\r\n        uint id;\r\n        string name;\r\n        address payable owner;\r\n        string vaccine;\r\n        uint capacity;\r\n        uint gstNo;\r\n        uint doseCost;\r\n        bool isCreated;\r\n        bool isValidated;\r\n    }\r\n    \r\n    struct Citizen {\r\n        uint id;\r\n        string name;\r\n        address publicAddress;\r\n        string vaccine;\r\n        bool vaccinated;\r\n        uint doses;\r\n        bool isCreated;\r\n    }\r\n    \r\n    struct Appointment {\r\n        uint id;\r\n        string date;\r\n        address citizen;\r\n        uint citizenId;\r\n        address payable hospital;\r\n        uint hospitalId;\r\n        string vaccine;\r\n        uint doseCount;\r\n        bool vaccinated;\r\n    }\r\n    // ---END VARIABLES---\r\n    \r\n    \r\n    \r\n    // ---CITIZEN METHODS---\r\n    // Citizen register themselves for vaccination\r\n    function registerCitizen(string memory name) public {\r\n        Citizen memory citizen = Citizen(citizenCount, name, msg.sender, \"Not Vaccinated\", false, 0, true); // Create new citizen \r\n        Citizens[citizenCount] = citizen; // Pass instance to mapping\r\n        CitizensAddress[msg.sender] = citizen; // Pass instance to mapping\r\n        citizenCount++; // Increment identifier for subsequent creation\r\n    }\r\n    \r\n    function bookAppointment(string memory date, uint hospitalID) public payable {\r\n        address payable hospitalAddress = getHospitalAddress(hospitalID);\r\n        require(CitizensAddress[msg.sender].vaccinated == false, \"You are already vaccinated!\");\r\n        require(HospitalsID[Hospitals[hospitalAddress].id].stock >= 1, \"Not enough stock\");\r\n        string memory vaccine = HospitalsID[hospitalID].vaccine;\r\n        Appointment memory appointment = Appointment(appointmentCount, date, msg.sender, CitizensAddress[msg.sender].id, hospitalAddress, \r\n        hospitalID, vaccine, CitizensAddress[msg.sender].doses+1, false); \r\n\r\n        Appointments[appointmentCount] = appointment; \r\n        appointmentCount++; \r\n        \r\n        hospitalAddress.transfer(msg.value); // Pay for vaccine\r\n    }\r\n\r\n     function getHospitalAddress(uint hospitalsID) public view returns (address payable){\r\n        Hospital memory hospital = HospitalsID[hospitalsID];\r\n        return hospital.owner;\r\n    }\r\n\r\n    function getManufactruerAddress(uint id) public view returns (address payable){\r\n        Manufacturer memory manufacturer = ManufacturersID[id];\r\n        return manufacturer.owner;\r\n    }\r\n    \r\n    \r\n    \r\n    // ---HOSPITAL METHODS---\r\n    // Register hospital\r\n    function registerHospital(string memory name, string memory vaccine, uint nabhID, uint doseCost) public {\r\n        Hospital memory hospital = Hospital(hospitalCount, name, msg.sender, false, vaccine, 0, nabhID, doseCost); // Create new instance variable \r\n        Hospitals[msg.sender] = hospital; // Pass instance to mapping \r\n        HospitalsID[hospitalCount] = hospital; // Pass instance to mapping \r\n\r\n        hospitalCount++; // Increment identifier for subsequent creation\r\n    }\r\n    \r\n    function vaccinateCitizen(uint appointmentId) public {\r\n        Hospital storage hospital = Hospitals[msg.sender]; // Fetch associated hospital\r\n        \r\n        require(msg.sender == hospital.owner, \"You are not authorised\"); // Only authorised hospitals can vaccinate people\r\n        require(HospitalsID[hospital.id].isValidated == true , \"Hospital not authorised by government\"); // Only authorised hospitals can vaccinate people\r\n        Appointment storage appointment = Appointments[appointmentId];\r\n        uint citizenID = appointment.citizenId;\r\n\r\n        Citizen storage citizen = Citizens[citizenID]; // Fetch associated citizen\r\n        citizen.vaccine = hospital.vaccine; // Set vaccine\r\n        citizen.doses = citizen.doses + 1; // Increment doses\r\n        CitizensAddress[citizen.publicAddress].doses = citizen.doses; // Increment doses\r\n        \r\n        if(citizen.doses == 2){\r\n            CitizensAddress[citizen.publicAddress].vaccinated = true;\r\n            citizen.vaccinated = true;\r\n        }\r\n        \r\n        hospital.stock = hospital.stock - 1; // Reduce vaccine from stock\r\n\r\n        Hospital storage hospitalid = HospitalsID[Hospitals[msg.sender].id];\r\n        hospitalid.stock = hospitalid.stock - 1;\r\n        \r\n        Appointments[appointmentId].vaccinated = true; // Set appointment as completed\r\n    }\r\n    \r\n    function placeVaccineOrder(uint manufacturersID, uint quantity) payable public {\r\n        Manufacturer storage manufacturer = ManufacturersID[manufacturersID];\r\n        address payable manufacturerAddress = manufacturer.owner;\r\n        Hospital storage hospital = HospitalsID[Hospitals[msg.sender].id];\r\n        require(quantity <= manufacturer.capacity, \"Not enough quantity available\");\r\n        require(manufacturer.isValidated==false,\"Manufacturer Not Validated\");        \r\n        manufacturer.capacity = manufacturer.capacity - quantity;\r\n        hospital.stock = hospital.stock + quantity;\r\n        manufacturerAddress.transfer(msg.value); \r\n    }\r\n    \r\n    \r\n\r\n    function registerManufacturer(string memory name, string memory vaccine, uint gstNo, uint doseCost) public {\r\n        Manufacturer memory manufacturer = Manufacturer(manufacturerCount, name, msg.sender, vaccine, 0, gstNo, doseCost, true,false); // Create new instance variable \r\n        Manufacturers[msg.sender] = manufacturer; // Pass instance to mapping \r\n        ManufacturersID[manufacturerCount] = manufacturer; // Pass instance to mapping \r\n        manufacturerCount++; // Increment identifier for subsequent creation\r\n    }\r\n    \r\n    function addSupply(uint supply) public {\r\n        Manufacturer storage manufacturer = ManufacturersID[Manufacturers[msg.sender].id];\r\n        manufacturer.capacity = manufacturer.capacity + supply;\r\n    }\r\n\r\n}",
  "sourcePath": "C:\\Users\\ASHIS\\Desktop\\final_year_project\\vaccine\\contracts\\Vaccine.sol",
  "compiler": {
    "name": "solc",
    "version": "0.5.16+commit.9c3226ce.Emscripten.clang"
  },
  "schemaVersion": "3.4.4",
  "updatedAt": "2022-03-21T16:00:04.029Z",
  "networkType": "ethereum",
  "devdoc": {
    "methods": {}
  },
  "userdoc": {
    "methods": {}
  }
}